{
    "abi": [
        {
            "inputs": [
                {
                    "internalType": "address",
                    "name": "entryPoint",
                    "type": "address"
                }
            ],
            "stateMutability": "nonpayable",
            "type": "constructor"
        },
        {
            "inputs": [
                {
                    "internalType": "address",
                    "name": "initKey",
                    "type": "address"
                }
            ],
            "name": "createWallet",
            "outputs": [
                {
                    "internalType": "contract Wallet",
                    "name": "",
                    "type": "address"
                }
            ],
            "stateMutability": "nonpayable",
            "type": "function"
        },
        {
            "inputs": [
                {
                    "internalType": "address",
                    "name": "initKey",
                    "type": "address"
                }
            ],
            "name": "getWalletAddress",
            "outputs": [
                {
                    "internalType": "address payable",
                    "name": "",
                    "type": "address"
                }
            ],
            "stateMutability": "view",
            "type": "function"
        },
        {
            "inputs": [],
            "name": "walletImplement",
            "outputs": [
                {
                    "internalType": "contract Wallet",
                    "name": "",
                    "type": "address"
                }
            ],
            "stateMutability": "view",
            "type": "function"
        }
    ],
    "bytecode": {
        "object": "0x60a060405234801561001057600080fd5b506040516131b13803806131b183398101604081905261002f91610088565b8060405161003c9061007b565b6001600160a01b039091168152602001604051809103906000f080158015610068573d6000803e3d6000fd5b506001600160a01b0316608052506100b8565b6127f9806109b883390190565b60006020828403121561009a57600080fd5b81516001600160a01b03811681146100b157600080fd5b9392505050565b6080516108d86100e060003960008181607a0152818161011a015261023f01526108d86000f3fe608060405234801561001057600080fd5b50600436106100415760003560e01c80631fd9afa51461004657806397a654bd14610075578063b054a9e81461009c575b600080fd5b610059610054366004610303565b6100af565b6040516001600160a01b03909116815260200160405180910390f35b6100597f000000000000000000000000000000000000000000000000000000000000000081565b6100596100aa366004610303565b6101b6565b604080516001600160a01b03831660208201526000918291016040516020818303038152906040528051906020012090506101af81604051806020016100f4906102f6565b601f1982820381018352601f9091011660408190526001600160a01b03871660248201527f00000000000000000000000000000000000000000000000000000000000000009060440160408051601f19818403018152918152602080830180516001600160e01b031663124ffc0160e21b179052905161017693929101610350565b60408051601f19818403018152908290526101949291602001610392565b604051602081830303815290604052805190602001206101c7565b9392505050565b60006101c1826101d4565b92915050565b60006101af8383306102cc565b6000806101e0836100af565b90506001600160a01b0381163b80156101fa575092915050565b604080516001600160a01b03861660208201526000910160408051601f198184030181529082905280516020909101206001600160a01b0387166024830152915081907f00000000000000000000000000000000000000000000000000000000000000009060440160408051601f198184030181529181526020820180516001600160e01b031663124ffc0160e21b17905251610296906102f6565b6102a1929190610350565b8190604051809103906000f59050801580156102c1573d6000803e3d6000fd5b509295945050505050565b6000604051836040820152846020820152828152600b8101905060ff815360559020949350505050565b6104e1806103c283390190565b60006020828403121561031557600080fd5b81356001600160a01b03811681146101af57600080fd5b60005b8381101561034757818101518382015260200161032f565b50506000910152565b60018060a01b0383168152604060208201526000825180604084015261037d81606085016020870161032c565b601f01601f1916919091016060019392505050565b600083516103a481846020880161032c565b8351908301906103b881836020880161032c565b0194935050505056fe60806040526040516104e13803806104e1833981016040819052610022916102de565b61002e82826000610035565b50506103fb565b61003e83610061565b60008251118061004b5750805b1561005c5761005a83836100a1565b505b505050565b61006a816100cd565b6040516001600160a01b038216907fbc7cd75a20ee27fd9adebab32041f755214dbc6bffa90cc0225b39da2e5c2d3b90600090a250565b60606100c683836040518060600160405280602781526020016104ba60279139610180565b9392505050565b6001600160a01b0381163b61013f5760405162461bcd60e51b815260206004820152602d60248201527f455243313936373a206e657720696d706c656d656e746174696f6e206973206e60448201526c1bdd08184818dbdb9d1c9858dd609a1b60648201526084015b60405180910390fd5b7f360894a13ba1a3210667c828492db98dca3e2076cc3735a920a3ca505d382bbc80546001600160a01b0319166001600160a01b0392909216919091179055565b6060600080856001600160a01b03168560405161019d91906103ac565b600060405180830381855af49150503d80600081146101d8576040519150601f19603f3d011682016040523d82523d6000602084013e6101dd565b606091505b5090925090506101ef868383876101f9565b9695505050505050565b60608315610268578251600003610261576001600160a01b0385163b6102615760405162461bcd60e51b815260206004820152601d60248201527f416464726573733a2063616c6c20746f206e6f6e2d636f6e74726163740000006044820152606401610136565b5081610272565b610272838361027a565b949350505050565b81511561028a5781518083602001fd5b8060405162461bcd60e51b815260040161013691906103c8565b634e487b7160e01b600052604160045260246000fd5b60005b838110156102d55781810151838201526020016102bd565b50506000910152565b600080604083850312156102f157600080fd5b82516001600160a01b038116811461030857600080fd5b60208401519092506001600160401b038082111561032557600080fd5b818501915085601f83011261033957600080fd5b81518181111561034b5761034b6102a4565b604051601f8201601f19908116603f01168101908382118183101715610373576103736102a4565b8160405282815288602084870101111561038c57600080fd5b61039d8360208301602088016102ba565b80955050505050509250929050565b600082516103be8184602087016102ba565b9190910192915050565b60208152600082518060208401526103e78160408501602087016102ba565b601f01601f19169190910160400192915050565b60b1806104096000396000f3fe608060405236601057600e6013565b005b600e5b601f601b6021565b6058565b565b600060537f360894a13ba1a3210667c828492db98dca3e2076cc3735a920a3ca505d382bbc546001600160a01b031690565b905090565b3660008037600080366000845af43d6000803e8080156076573d6000f35b3d6000fdfea2646970667358221220645f300e125dd3ce1dddbc9298e0c571eacf73c4156a3a5661a82c5bc0e2b8ae64736f6c63430008130033416464726573733a206c6f772d6c6576656c2064656c65676174652063616c6c206661696c6564a2646970667358221220b75c09452eb47df6acbb0f430d6a25d38294d1725df0040ce6d481f4c9ed63e664736f6c6343000813003361012060405230608052600160a0527f87811f529cafcb6c46985aed1d6771b44d67ee365f54f570c8cebc3679a31a8c60c0527f805dd85f12947019774950c90727cb49341c55479dd1fe9c438e28e9588ec9c060e0523480156200006357600080fd5b50604051620027f9380380620027f9833981016040819052620000869162000099565b6001600160a01b031661010052620000cb565b600060208284031215620000ac57600080fd5b81516001600160a01b0381168114620000c457600080fd5b9392505050565b60805160a05160c05160e05161010051612656620001a360003960008181610380015281816110540152818161131f015261158501526000818161034f01528181611028015281816116bb01526116f10152600081816104700152818161110d01526116330152600081816104a4015281816106e00152818161070901528181610ac501528181610af001528181610d0501528181610d7801528181610e0301528181610e380152610e9e0152600081816107a3015281816107ec01528181610b7001528181610bb00152610c3f01526126566000f3fe60806040526004361061013f5760003560e01c80635cf00ee4116100b6578063bc197c811161006f578063bc197c81146103d8578063c5afe5e014610407578063d087d2881461041c578063f23a6e6114610431578063f74838601461045e578063fae010f61461049257600080fd5b80635cf00ee4146102dd5780635f7b68be146102fd5780638ab3e33f1461031d578063abf0c7271461033d578063b0d691fe14610371578063b61d27f6146103b857600080fd5b80633659cfe6116101085780633659cfe6146102275780633a871cdd1461024757806347e1da2a14610275578063493ff004146102955780634f1ef286146102b557806352d1902d146102c857600080fd5b806223de291461014457806301ffc9a71461016b578063150b7a02146101a05780631626ba7e146101e55780632150c51814610205575b600080fd5b34801561015057600080fd5b5061016961015f366004611c18565b5050505050505050565b005b34801561017757600080fd5b5061018b610186366004611cd8565b6104c6565b60405190151581526020015b60405180910390f35b3480156101ac57600080fd5b506101cc6101bb366004611cf5565b630a85bd0160e11b95945050505050565b6040516001600160e01b03199091168152602001610197565b3480156101f157600080fd5b506101cc610200366004611d63565b610533565b34801561021157600080fd5b5061021a610684565b6040516101979190611dae565b34801561023357600080fd5b50610169610242366004611dfb565b610799565b34801561025357600080fd5b50610267610262366004611e16565b610881565b604051908152602001610197565b34801561028157600080fd5b50610169610290366004611ead565b6108a7565b3480156102a157600080fd5b506101696102b0366004611dfb565b610a00565b6101696102c3366004611f5c565b610b66565b3480156102d457600080fd5b50610267610c32565b3480156102e957600080fd5b5061018b6102f8366004611dfb565b610ce5565b34801561030957600080fd5b50610169610318366004611dfb565b610d3f565b34801561032957600080fd5b5061016961033836600461201d565b610e65565b34801561034957600080fd5b506102677f000000000000000000000000000000000000000000000000000000000000000081565b34801561037d57600080fd5b507f00000000000000000000000000000000000000000000000000000000000000005b6040516001600160a01b039091168152602001610197565b3480156103c457600080fd5b506101696103d3366004612050565b610f8d565b3480156103e457600080fd5b506101cc6103f33660046120a9565b63bc197c8160e01b98975050505050505050565b34801561041357600080fd5b50610267611021565b34801561042857600080fd5b50610267611050565b34801561043d57600080fd5b506101cc61044c366004612142565b63f23a6e6160e01b9695505050505050565b34801561046a57600080fd5b506102677f000000000000000000000000000000000000000000000000000000000000000081565b34801561049e57600080fd5b506103a07f000000000000000000000000000000000000000000000000000000000000000081565b60006001600160e01b03198216630271189760e51b14806104f757506001600160e01b03198216630a85bd0160e11b145b8061051257506001600160e01b031982166301ffc9a760e01b145b8061052d57506301ffc9a760e01b6001600160e01b03198316145b92915050565b60008061054360148285876121a7565b61054c916121d1565b60601c9050600061056084601481886121a7565b8080601f0160208091040260200160405190810160405280939291908181526020018383808284376000920191909152509293506105a39250849150610ce59050565b1561066f576001600160a01b0382163b1561062e57604051630b135d3f60e11b81526001600160a01b03831690631626ba7e906105e69089908590600401612254565b602060405180830381865afa158015610603573d6000803e3d6000fd5b505050506040513d601f19601f82011682018060405250810190610627919061226d565b925061067b565b61063886826110e4565b6001600160a01b0316826001600160a01b03160361065f57630b135d3f60e11b925061067b565b6001600160e01b0319925061067b565b6001600160e01b031992505b50509392505050565b60606000610690611021565b90506000816001600160401b038111156106ac576106ac611f46565b6040519080825280602002602001820160405280156106d5578160200160208202803683370190505b5090506000806107047f0000000000000000000000000000000000000000000000000000000000000000611108565b90505b7f00000000000000000000000000000000000000000000000000000000000000006001600160a01b0316816001600160a01b03161461079057808383815181106107535761075361228a565b60200260200101906001600160a01b031690816001600160a01b03168152505061077c81611108565b905081610788816122b6565b925050610707565b50909392505050565b6001600160a01b037f00000000000000000000000000000000000000000000000000000000000000001630036107ea5760405162461bcd60e51b81526004016107e1906122cf565b60405180910390fd5b7f00000000000000000000000000000000000000000000000000000000000000006001600160a01b03166108336000805160206125da833981519152546001600160a01b031690565b6001600160a01b0316146108595760405162461bcd60e51b81526004016107e19061231b565b61086281611180565b6040805160008082526020820190925261087e918391906111a4565b50565b600061088b611314565b610895848461138e565b90506108a08261151f565b9392505050565b6108af611578565b6108cb5760405162461bcd60e51b81526004016107e190612367565b8481146109105760405162461bcd60e51b815260206004820152601360248201527257726f6e67206172726179206c656e6774687360681b60448201526064016107e1565b60005b858110156109ce576109bc8787838181106109305761093061228a565b90506020020160208101906109459190611dfb565b8686848181106109575761095761228a565b905060200201358585858181106109705761097061228a565b90506020028101906109829190612397565b8080601f0160208091040260200160405190810160405280939291908181526020018383808284376000920191909152506115bf92505050565b806109c6816122b6565b915050610913565b506040517fb9d2d32c9e5b3a74bb2ccd4d000be39660f9852691248d3b91f49adb1ec00f1990600090a1505050505050565b600054610100900460ff1615808015610a205750600054600160ff909116105b80610a3a5750303b158015610a3a575060005460ff166001145b610a9d5760405162461bcd60e51b815260206004820152602e60248201527f496e697469616c697a61626c653a20636f6e747261637420697320616c72656160448201526d191e481a5b9a5d1a585b1a5e995960921b60648201526084016107e1565b6000805460ff191660011790558015610ac0576000805461ff0019166101001790555b610aea7f00000000000000000000000000000000000000000000000000000000000000008361162f565b610b14827f000000000000000000000000000000000000000000000000000000000000000061162f565b610b1c6116b9565b8015610b62576000805461ff0019169055604051600181527f7f26b83ff96e1f2b6a682f133852f6798a09c465da95921460cefb38474024989060200160405180910390a15b5050565b6001600160a01b037f0000000000000000000000000000000000000000000000000000000000000000163003610bae5760405162461bcd60e51b81526004016107e1906122cf565b7f00000000000000000000000000000000000000000000000000000000000000006001600160a01b0316610bf76000805160206125da833981519152546001600160a01b031690565b6001600160a01b031614610c1d5760405162461bcd60e51b81526004016107e19061231b565b610c2682611180565b610b62828260016111a4565b6000306001600160a01b037f00000000000000000000000000000000000000000000000000000000000000001614610cd25760405162461bcd60e51b815260206004820152603860248201527f555550535570677261646561626c653a206d757374206e6f742062652063616c60448201527f6c6564207468726f7567682064656c656761746563616c6c000000000000000060648201526084016107e1565b506000805160206125da83398151915290565b600080610cf183611108565b6001600160a01b03161415801561052d57507f00000000000000000000000000000000000000000000000000000000000000006001600160a01b0316826001600160a01b0316141592915050565b610d47611578565b610d635760405162461bcd60e51b81526004016107e190612367565b6001600160a01b03811615801590610dad57507f00000000000000000000000000000000000000000000000000000000000000006001600160a01b0316816001600160a01b031614155b8015610dc257506001600160a01b0381163014155b610dfc5760405162461bcd60e51b815260206004820152600b60248201526a496e76616c6964204b657960a81b60448201526064016107e1565b6000610e277f0000000000000000000000000000000000000000000000000000000000000000611108565b9050610e33828261162f565b610e5d7f00000000000000000000000000000000000000000000000000000000000000008361162f565b610b626116b9565b610e6d611578565b610e895760405162461bcd60e51b81526004016107e190612367565b6001600160a01b03811615801590610ed357507f00000000000000000000000000000000000000000000000000000000000000006001600160a01b0316816001600160a01b031614155b610f0d5760405162461bcd60e51b815260206004820152600b60248201526a496e76616c6964204b657960a81b60448201526064016107e1565b806001600160a01b0316610f2083611108565b6001600160a01b031614610f685760405162461bcd60e51b815260206004820152600f60248201526e496e76616c696420707265764b657960881b60448201526064016107e1565b610f7a82610f7583611108565b61162f565b610f8581600061162f565b610b626116ef565b610f95611578565b610fb15760405162461bcd60e51b81526004016107e190612367565b610ff2848484848080601f0160208091040260200160405190810160405280939291908181526020018383808284376000920191909152506115bf92505050565b6040517fb9d2d32c9e5b3a74bb2ccd4d000be39660f9852691248d3b91f49adb1ec00f1990600090a150505050565b600061104b7f00000000000000000000000000000000000000000000000000000000000000005490565b905090565b60007f0000000000000000000000000000000000000000000000000000000000000000604051631aab3f0d60e11b8152306004820152600060248201526001600160a01b0391909116906335567e1a90604401602060405180830381865afa1580156110c0573d6000803e3d6000fd5b505050506040513d601f19601f8201168201806040525081019061104b91906123dd565b60008060006110f3858561171e565b9150915061110081611763565b509392505050565b6000807f0000000000000000000000000000000000000000000000000000000000000000836040516020016111509291909182526001600160a01b0316602082015260400190565b60405160208183030381529060405280519060200120905061116f8190565b546001600160a01b03169392505050565b611188611578565b61087e5760405162461bcd60e51b81526004016107e190612367565b7f4910fdfa16fed3260ed0e7147f7cc6da11a60208b5b9406d12a635614ffd91435460ff16156111dc576111d7836118ad565b505050565b826001600160a01b03166352d1902d6040518163ffffffff1660e01b8152600401602060405180830381865afa925050508015611236575060408051601f3d908101601f19168201909252611233918101906123dd565b60015b6112995760405162461bcd60e51b815260206004820152602e60248201527f45524331393637557067726164653a206e657720696d706c656d656e7461746960448201526d6f6e206973206e6f74205555505360901b60648201526084016107e1565b6000805160206125da83398151915281146113085760405162461bcd60e51b815260206004820152602960248201527f45524331393637557067726164653a20756e737570706f727465642070726f786044820152681a58589b195555525160ba1b60648201526084016107e1565b506111d7838383611949565b336001600160a01b037f0000000000000000000000000000000000000000000000000000000000000000161461138c5760405162461bcd60e51b815260206004820152601c60248201527f6163636f756e743a206e6f742066726f6d20456e747279506f696e740000000060448201526064016107e1565b565b60008061139f610140850185612397565b6113ae916014916000916121a7565b6113b7916121d1565b60601c905060006113cc610140860186612397565b6113da9160149082906121a7565b8080601f01602080910402602001604051908101604052809392919081815260200183838082843760009201919091525092935061141d9250849150610ce59050565b15611512576001600160a01b0382163b156114ad5760405160016206524760e11b031981526001600160a01b0383169063fff35b72906114639088908890600401612464565b6020604051808303816000875af1158015611482573d6000803e3d6000fd5b505050506040513d601f19601f820116820180604052508101906114a691906123dd565b9250611517565b7f19457468657265756d205369676e6564204d6573736167653a0a3332000000006000908152601c859052603c90206114e681836110e4565b6001600160a01b0316836001600160a01b031603611507576000935061150c565b600193505b50611517565b600192505b505092915050565b801561087e57604051600090339060001990849084818181858888f193505050503d806000811461156c576040519150601f19603f3d011682016040523d82523d6000602084013e611571565b606091505b5050505050565b6000336001600160a01b037f00000000000000000000000000000000000000000000000000000000000000001614806115b057503330145b8061104b575061104b33610ce5565b600080846001600160a01b031684846040516115db919061257d565b60006040518083038185875af1925050503d8060008114611618576040519150601f19603f3d011682016040523d82523d6000602084013e61161d565b606091505b50915091508161157157805160208201fd5b60007f0000000000000000000000000000000000000000000000000000000000000000836040516020016116769291909182526001600160a01b0316602082015260400190565b604051602081830303815290604052805190602001209050816116968290565b80546001600160a01b0319166001600160a01b0392909216919091179055505050565b7f000000000000000000000000000000000000000000000000000000000000000080549060006116e8836122b6565b9190505550565b7f000000000000000000000000000000000000000000000000000000000000000080549060006116e883612599565b60008082516041036117545760208301516040840151606085015160001a61174887828585611974565b9450945050505061175c565b506000905060025b9250929050565b6000816004811115611777576117776125b0565b0361177f5750565b6001816004811115611793576117936125b0565b036117e05760405162461bcd60e51b815260206004820152601860248201527f45434453413a20696e76616c6964207369676e6174757265000000000000000060448201526064016107e1565b60028160048111156117f4576117f46125b0565b036118415760405162461bcd60e51b815260206004820152601f60248201527f45434453413a20696e76616c6964207369676e6174757265206c656e6774680060448201526064016107e1565b6003816004811115611855576118556125b0565b0361087e5760405162461bcd60e51b815260206004820152602260248201527f45434453413a20696e76616c6964207369676e6174757265202773272076616c604482015261756560f01b60648201526084016107e1565b6001600160a01b0381163b61191a5760405162461bcd60e51b815260206004820152602d60248201527f455243313936373a206e657720696d706c656d656e746174696f6e206973206e60448201526c1bdd08184818dbdb9d1c9858dd609a1b60648201526084016107e1565b6000805160206125da83398151915280546001600160a01b0319166001600160a01b0392909216919091179055565b61195283611a38565b60008251118061195f5750805b156111d75761196e8383611a78565b50505050565b6000807f7fffffffffffffffffffffffffffffff5d576e7357a4501ddfe92f46681b20a08311156119ab5750600090506003611a2f565b6040805160008082526020820180845289905260ff881692820192909252606081018690526080810185905260019060a0016020604051602081039080840390855afa1580156119ff573d6000803e3d6000fd5b5050604051601f1901519150506001600160a01b038116611a2857600060019250925050611a2f565b9150600090505b94509492505050565b611a41816118ad565b6040516001600160a01b038216907fbc7cd75a20ee27fd9adebab32041f755214dbc6bffa90cc0225b39da2e5c2d3b90600090a250565b60606108a083836040518060600160405280602781526020016125fa602791396060600080856001600160a01b031685604051611ab5919061257d565b600060405180830381855af49150503d8060008114611af0576040519150601f19603f3d011682016040523d82523d6000602084013e611af5565b606091505b5091509150611b0686838387611b10565b9695505050505050565b60608315611b7f578251600003611b78576001600160a01b0385163b611b785760405162461bcd60e51b815260206004820152601d60248201527f416464726573733a2063616c6c20746f206e6f6e2d636f6e747261637400000060448201526064016107e1565b5081611b89565b611b898383611b91565b949350505050565b815115611ba15781518083602001fd5b8060405162461bcd60e51b81526004016107e191906125c6565b80356001600160a01b0381168114611bd257600080fd5b919050565b60008083601f840112611be957600080fd5b5081356001600160401b03811115611c0057600080fd5b60208301915083602082850101111561175c57600080fd5b60008060008060008060008060c0898b031215611c3457600080fd5b611c3d89611bbb565b9750611c4b60208a01611bbb565b9650611c5960408a01611bbb565b95506060890135945060808901356001600160401b0380821115611c7c57600080fd5b611c888c838d01611bd7565b909650945060a08b0135915080821115611ca157600080fd5b50611cae8b828c01611bd7565b999c989b5096995094979396929594505050565b6001600160e01b03198116811461087e57600080fd5b600060208284031215611cea57600080fd5b81356108a081611cc2565b600080600080600060808688031215611d0d57600080fd5b611d1686611bbb565b9450611d2460208701611bbb565b93506040860135925060608601356001600160401b03811115611d4657600080fd5b611d5288828901611bd7565b969995985093965092949392505050565b600080600060408486031215611d7857600080fd5b8335925060208401356001600160401b03811115611d9557600080fd5b611da186828701611bd7565b9497909650939450505050565b6020808252825182820181905260009190848201906040850190845b81811015611def5783516001600160a01b031683529284019291840191600101611dca565b50909695505050505050565b600060208284031215611e0d57600080fd5b6108a082611bbb565b600080600060608486031215611e2b57600080fd5b83356001600160401b03811115611e4157600080fd5b84016101608187031215611e5457600080fd5b95602085013595506040909401359392505050565b60008083601f840112611e7b57600080fd5b5081356001600160401b03811115611e9257600080fd5b6020830191508360208260051b850101111561175c57600080fd5b60008060008060008060608789031215611ec657600080fd5b86356001600160401b0380821115611edd57600080fd5b611ee98a838b01611e69565b90985096506020890135915080821115611f0257600080fd5b611f0e8a838b01611e69565b90965094506040890135915080821115611f2757600080fd5b50611f3489828a01611e69565b979a9699509497509295939492505050565b634e487b7160e01b600052604160045260246000fd5b60008060408385031215611f6f57600080fd5b611f7883611bbb565b915060208301356001600160401b0380821115611f9457600080fd5b818501915085601f830112611fa857600080fd5b813581811115611fba57611fba611f46565b604051601f8201601f19908116603f01168101908382118183101715611fe257611fe2611f46565b81604052828152886020848701011115611ffb57600080fd5b8260208601602083013760006020848301015280955050505050509250929050565b6000806040838503121561203057600080fd5b61203983611bbb565b915061204760208401611bbb565b90509250929050565b6000806000806060858703121561206657600080fd5b61206f85611bbb565b93506020850135925060408501356001600160401b0381111561209157600080fd5b61209d87828801611bd7565b95989497509550505050565b60008060008060008060008060a0898b0312156120c557600080fd5b6120ce89611bbb565b97506120dc60208a01611bbb565b965060408901356001600160401b03808211156120f857600080fd5b6121048c838d01611e69565b909850965060608b013591508082111561211d57600080fd5b6121298c838d01611e69565b909650945060808b0135915080821115611ca157600080fd5b60008060008060008060a0878903121561215b57600080fd5b61216487611bbb565b955061217260208801611bbb565b9450604087013593506060870135925060808701356001600160401b0381111561219b57600080fd5b611f3489828a01611bd7565b600080858511156121b757600080fd5b838611156121c457600080fd5b5050820193919092039150565b6bffffffffffffffffffffffff1981358181169160148510156115175760149490940360031b84901b1690921692915050565b60005b8381101561221f578181015183820152602001612207565b50506000910152565b60008151808452612240816020860160208601612204565b601f01601f19169290920160200192915050565b828152604060208201526000611b896040830184612228565b60006020828403121561227f57600080fd5b81516108a081611cc2565b634e487b7160e01b600052603260045260246000fd5b634e487b7160e01b600052601160045260246000fd5b6000600182016122c8576122c86122a0565b5060010190565b6020808252602c908201527f46756e6374696f6e206d7573742062652063616c6c6564207468726f7567682060408201526b19195b1959d85d1958d85b1b60a21b606082015260800190565b6020808252602c908201527f46756e6374696f6e206d7573742062652063616c6c6564207468726f7567682060408201526b6163746976652070726f787960a01b606082015260800190565b6020808252601690820152752bb0b63632ba1d1024b73b30b634b21021b0b63632b960511b604082015260600190565b6000808335601e198436030181126123ae57600080fd5b8301803591506001600160401b038211156123c857600080fd5b60200191503681900382131561175c57600080fd5b6000602082840312156123ef57600080fd5b5051919050565b6000808335601e1984360301811261240d57600080fd5b83016020810192503590506001600160401b0381111561242c57600080fd5b80360382131561175c57600080fd5b81835281816020850137506000828201602090810191909152601f909101601f19169091010190565b604081526124856040820161247885611bbb565b6001600160a01b03169052565b60208301356060820152600061249e60408501856123f6565b6101608060808601526124b66101a08601838561243b565b92506124c560608801886123f6565b9250603f19808786030160a08801526124df85858461243b565b9450608089013560c088015260a089013560e0880152610100935060c089013584880152610120915060e089013582880152610140848a013581890152612528838b018b6123f6565b9550925081888703018489015261254086868561243b565b955061254e818b018b6123f6565b95509350508087860301610180880152505061256b83838361243b565b93505050508260208301529392505050565b6000825161258f818460208701612204565b9190910192915050565b6000816125a8576125a86122a0565b506000190190565b634e487b7160e01b600052602160045260246000fd5b6020815260006108a0602083018461222856fe360894a13ba1a3210667c828492db98dca3e2076cc3735a920a3ca505d382bbc416464726573733a206c6f772d6c6576656c2064656c65676174652063616c6c206661696c6564a2646970667358221220e8ce986fb088cfe37b7055041adb6490b3b2341d7802086eb5566ededa67852f64736f6c63430008130033",
        "linkReferences": {}
    },
    "methodIdentifiers": {
        "createWallet(address)": "b054a9e8",
        "getWalletAddress(address)": "1fd9afa5",
        "walletImplement()": "97a654bd"
    },
    "id": 65
}